:020000022000DC
:1060000000000120B5620200DD620200DF620200D2
:10601000E1620200E3620200E562020000000000AB
:10602000000000000000000000000000E762020025
:10603000E962020000000000EB620200ED62020073
:10604000B1890200EF620200F5920200EF620200E5
:10605000EF620200EF620200AD8D0200EF6202000B
:10606000EF620200259E0200EF620200EF62020072
:10607000EF620200EF620200EF620200EF620200D4
:10608000EF6202009D720200EF620200EF62020006
:106090003D730200EF6202001DB90200EF620200D0
:1060A000EF620200EF620200EF620200EF620200A4
:1060B000EF620200EF62020000000000000000003A
:1060C000EF620200EF620200EF620200EF62020084
:1060D000EF620200EF620200EF62020000000000C7
:1060E00000000000000000000000000000000000B0
:1060F00000000000000000000000000000000000A0
:10610000000000000000000000000000000000008F
:10611000000000000000000000000000000000007F
:10612000000000000000000000000000000000006F
:10613000000000000000000000000000000000005F
:10614000000000000000000000000000000000004F
:10615000000000000000000000000000000000003F
:10616000000000000000000000000000000000002F
:10617000000000000000000000000000000000001F
:10618000000000000000000000000000000000000F
:1061900000000000000000000000000000000000FF
:1061A00000000000000000000000000000000000EF
:1061B00000000000000000000000000000000000DF
:1061C00000000000000000000000000000000000CF
:1061D00000000000000000000000000000000000BF
:1061E00000000000000000000000000000000000AF
:1061F000000000000000000000000000000000009F
:1062000010B5054C237833B9044B13B10448AFF3F0
:1062100000800123237010BD102500200000000025
:1062200094C9020008B5034B1BB103490348AFF3FF
:10623000008008BD000000001425002094C9020061
:10624000154B002B08BF134B9D46A3F5803A002148
:106250008B460F461348144A121A05F034FD0F4BB3
:10626000002B00D098470E4B002B00D09847002001
:10627000002104000D000D48002802D00C48AFF3A7
:10628000008005F0D1FC2000290004F047F805F05B
:10629000B7FC00BF00000800000001200000000063
:1062A0000000000010250020282E00200000000023
:1062B000000000000649074A074B9B1A03DD043B18
:1062C000C858D050FBDC02F0D9F8FFF7B9FF000046
:1062D00068CA0200B822002010250020FEE7FEE771
:1062E000FEE7FEE7FEE7FEE7FEE7FEE7FEE7FEE786
:1062F000F0B595B0002415460F4608461E4601F03D
:10630000AFFF384623460895082205A91A9D09962D
:106310000D950A948DF82C400C9401F0F5FF9DF832
:1063200014308DF81140DDE9061003F00302012A54
:10633000CDE9020127D0022A04D0384601F094FFAB
:1063400015B0F0BDBDF81650C3F3C2038DF8103080
:10635000AD090826082D2C4628BF082433462246BE
:106360000EA9384601F0D0FF2D1B214608AB02AA2A
:106370000EA8264400F034FD002DEBD1384601F084
:1063800073FF15B0F0BDBDF81460059DC6F383160C
:10639000C3F3C204B2000EA9384608238DF810409A
:1063A000C5F3952501F0B0FF08AB324628460EA98B
:1063B000009302AB00F06EFC384601F055FF15B0BB
:1063C000F0BD00BF014B01221A70704770250020FC
:1063D000704700BF00B583B0044B0093044A4023CC
:1063E000FFF786FF03B05DF804FB00BFF563020012
:1063F0003025002038B50E480E4D03780E4CEB5C6E
:106400000025D2B2257053B90C3003F0C1F958B948
:106410000A4B1B7813B12378002BFCD038BD043015
:1064200003F0FAFB0028F3D000F0F2FEF0E700BF23
:10643000B8220020242E0020702500202C250020CA
:1064400070B51348134A0378D35C88B0DBB90C30BD
:1064500003F038F9104D0FCD6C460FC495E80F00CE
:1064600008AD062645F8206D84E80F002946002275
:10647000074802F05DFA08B100F0CAFE074B00229F
:106480001A7008B070BD043003F05EFBE2E700BF95
:10649000B8220020242E00201CBD02002C25002044
:1064A00070B50D4D0FCD88B06C460FC495E80F0048
:1064B00008AD062645F8206D84E80F002946074AF6
:1064C000074802F035FA08B100F0A2FE054B0122A0
:1064D0001A7008B070BD00BF1CBD0200C563020089
:1064E000B82200202C25002010B5054CFFF7D8FF5E
:1064F0002046042100F08CFB0123637210BD00BF15
:10650000CC220020F0B5314D85B005F5836001F057
:106510006BFA05F2144001F067FAD5E9012702EAA7
:106520000704E31C05EB830319788E0701F00400D0
:106530000ED0C8B101F00301012935D0022902F1C2
:106540000200EED15A8800EB921202EA0704E8E753
:10655000561C0028EED159881A8806EB911606EBD6
:10656000921202EA0704DCE705EB8404531CE1689D
:1065700001913B4005EB830301F003010129DE6833
:1065800002F102041AD0022916D1BDF806309B0987
:106590000333360C04EB93040D4801F031FA00B1DB
:1065A0006C60304605B0F0BD1B880232C3F3831324
:1065B0001A4402EA0704B4E70646EDE7BDF80430E2
:1065C000C3F38313360C1C44E6E700BF44260020C7
:1065D000582A002008B50E4B0E480022FF21C3F8B0
:1065E00018249960C3E90022C3F8142483F82024F6
:1065F00001F0F2FD58B9084A084BD21AD20806D069
:106600000749034621F8233001339A42FAD108BDE5
:106610004426002038CA020038CA0200D0C902004D
:10662000D824002021B9134A02EBC000006870474B
:1066300030B411490F4C091BC90816D00F4B5A88AA
:10664000824218BF002205D111E0DD88854203F1A6
:10665000040305D001329142F7D1002030BC7047CD
:1066600004EBC200006830BC70470846F6E72046DD
:10667000F8E700BFD0C9020038CA0200D8240020C1
:10668000094B013903EBC00003290BD8DFE801F007
:10669000020806040220704740797047007970476D
:1066A0000420704700207047D0C902002DE9F04354
:1066B00083B002AB002203F8012DDFF8DC9007461F
:1066C00018468846D9F8084001F0F8F8D9E90132AF
:1066D000D9F80060134401339B1B012B58D809F2F1
:1066E0001C450121284601F067F9FFF70BFF014621
:1066F000284601F061F9D9E90132D9F800101344B4
:1067000001335B1A012BECD90A4003320523023115
:106710009DF8070049F82230C9F8001001F0F4F89C
:1067200000211C4801F026F980F31000731C23405F
:1067300009EB830300043440033440EA1740D86077
:1067400019F8243067F3C50309F8243039F82430E8
:106750006FF3891329F8243059F8242068F39F2215
:106760001346012161F301036FF3820349F82420EA
:1067700009F8243099F820341BB906E000F00EF82F
:1067800018B1D9E900329A42F8D103B0BDE8F083DC
:106790003146B9E7602A0020442600202DE9F04761
:1067A0008F4D002384B0C5F81834BFF34F8FD5E95F
:1067B00001462B680CE037B301F0030101294FD0EB
:1067C000022903D15288023404EB9214A34215D952
:1067D00004EA0600C21C05EB8202117811F0030FD7
:1067E00001F00407E7D1002FE6D151881288013467
:1067F00004EB911404EB9214A342E9D800206B60DF
:1068000004B0BDE8F08705EB8000631CC26801920C
:10681000334005EB830302F00302DB680293022A94
:1068200004F1020800F08380012A1FD0D5F810443B
:1068300034B1236820469B6898476468002CF8D1DF
:10684000684B69491888000440F00200FFF72EFFEA
:10685000D5E90030C01A18BF012004B0BDE8F087A8
:1068600012880234C2F383121444AFE7BDF8042047
:106870005E48C2F38313062B28BF062363F38912F5
:1068800002339900ADF8042001F0A8FC81460028ED
:10689000CCD001F0E5FC3B46082201A9484601F0B6
:1068A00005FDBDF8043013F4707F00F097806FF0A1
:1068B000010AAAEB040A082406EA08010331234668
:1068C000042205EB8101484601F0F0FCBDF80430DC
:1068D00008F101070AEB0702C3F383139342B8469A
:1068E00004F10404E8D8D5F81834002B6BD1D5F89E
:1068F000104454B1637A20464946002B5FD0236888
:106900001B6898476468002CF4D1484601F0ACFC41
:1069100004A8002300F80D3D00F0D0FFD5F818348E
:1069200003B96F609DF8030000F0EEFF90E7BDF83B
:1069300006302E489C09502CA24628BF4FF0500A22
:106940006AF38F130AF10801ADF8063001F046FC36
:10695000814600283FF46AAF01F082FC3B4626EAFC
:1069600008070137082201A94846BF0001F09EFC34
:10697000BA4519D95FFA8AF34FB306EA0801DB1B5F
:10698000033105EB8101DEB23A460823484601F0A7
:106990008DFC324607F108031549484601F086FC94
:1069A000033408EB94079EE706EA0801033105EB80
:1069B000810152460823484601F078FCF0E76468FC
:1069C000002C97D1A1E7484601F04EFC40E7524623
:1069D00008230749484601F069FCE1E7474682E79A
:1069E00044260020F024002048BD020038CA0200DE
:1069F000502600202DE9F04782B002AB002403F8B6
:106A0000014DDFF8ECA00746184691468846DAF8B3
:106A1000084000F053FFDAE90132DAF8006013446D
:106A200001339B1B022B5ED80AF21C45012128462C
:106A300000F0C2FFFFF766FD0146284600F0BCFFEC
:106A4000DAE90132DAF80010134401335B1A022B41
:106A5000ECD90A400332033145239DF807004AF878
:106A60002230CAF8001000F04FFFB31C23400AEB9D
:106A7000830300211D48C3F80C9000F07BFF80F3D6
:106A80001000731C23400AEB8303000434400334DA
:106A900040EA1740D8601AF8243067F3C5030AF8B3
:106AA00024303AF82430012161F389132AF8243084
:106AB0005AF8242068F39F22134661F301036FF311
:106AC00082034AF824200AF824309AF820341BB9AB
:106AD00006E0FFF763FE18B1DAE900329A42F8D116
:106AE00002B0BDE8F0873146B3E700BF602A00205E
:106AF000442600202DE9F04F83B002AD002405F8B4
:106B0000014D3B4C8046284693469A468946A568E7
:106B100000F0D4FED4E90132276813440133DB1BB3
:106B2000032B63D804F21C460121304600F044FFD9
:106B3000FFF7E8FC0146304600F03EFFD4E90132A1
:106B40002168134401335B1A032BEDD90A40033249
:106B5000852344F8223004319DF80700216000F0BD
:106B6000D3FEBA1CFB1C2A402B4004EB820204EB30
:106B7000830300211F48C2F80CB0C3F80CA000F03A
:106B8000F9FE80F310007B1C2B4004EB8303000410
:106B90003D40033540EA1840D86014F8253068F3CA
:106BA000C50304F8253034F82530022262F3891336
:106BB00024F8253054F8252069F39F22134601213B
:106BC00061F301036FF3820344F8252004F82530B4
:106BD00094F820341BB906E0FFF7E0FD18B1D4E9C2
:106BE00000329A42F8D103B0BDE8F08F3946ADE7E4
:106BF00044260020602A0020044BD3E900239A4257
:106C000001D0FFF7CBBD0020704700BF4426002015
:106C100030B4154DD5F81044002154B1237A8B427D
:106C200013D0234602E01A7A8A420ED05B68002B0A
:106C3000F9D10172D5F810347BB15B684360D5F8A7
:106C40001034586030BC0846704701310A29E4D13D
:106C50004FF0FF31084630BC7047C5F81004436060
:106C600030BC0846704700BF4426002038B5084BAA
:106C7000D3F81044012583F820543CB12368657291
:106C800020465B6898476468002CF7D138BD00BF88
:106C9000442600202DE9F04784B01D460C9C0023BB
:106CA00094F80C802373EB8881460E461746002B20
:106CB00040D1297A05290ED06B7AA88873BB404B46
:106CC00053F821A00021FFF7ADFC524603463D4991
:106CD000204600F00DFF062F09D8DFE807F0046A10
:106CE0004249525D33004946204600F001FF2B7AAD
:106CF000052B05D06B7A5BB93349204600F0F8FECE
:106D0000204600F0E9FE84F80C8004B0BDE8F0876E
:106D10002E4A2F49204600F0EBFEEDE7FFF7B0FCCE
:106D20002C4B2B4953F82020204600F0E1FE297A15
:106D3000A888C4E7254A00922749284A204600F03F
:106D4000D7FEB6E7D6E90410D6E900230390D6E9CA
:106D500002070291CDE900074946204600F0C8FE2F
:106D6000C5E74946D6E90023204600F0C1FEBEE74C
:106D7000B168D6E9002320460091494600F0B8FEEC
:106D8000B5E7D6E90201D6E9002301910090494612
:106D9000204600F0ADFEAAE7D6E90371B068D6E957
:106DA00000230291CDE900074946204600F0A0FEED
:106DB0009DE732684946204600F09AFE97E700BFFB
:106DC000E8BD0200D8BD0200E4BD0200CCBD020057
:106DD000D4BD020074BD0200B4BD0200ACBD02000F
:106DE000082900D970472DE9F04F1D469046002331
:106DF0002A7B2B7385B0B8F80630039207460E46FF
:106E0000002B77D198F80810052911D098F809308F
:106E1000B8F80400002B5FD13A4B53F82140002111
:106E2000FFF700FC224603463749284600F060FE83
:106E3000DFF8F4B0DFF8F490002405E03A5D0134A7
:106E400000F056FE082C09D0A64249462846F5D83F
:106E50005946013400F04CFE082CF5D12B49DFF8DF
:106E6000D090DFF8D0B0284600F042FE002411E0B8
:106E700017F804A004F0FCFE50445946437813F080
:106E8000970F14BF52462E222846013400F030FEE0
:106E9000082C08D0A64249462846E9D8013400F01B
:106EA00027FE082CF6D198F80830052B02D098F868
:106EB00009305BB91649284600F01AFE284600F052
:106EC0000BFE039B2B7305B0BDE8F08F114A1249EE
:106ED000284600F00DFEEDE7FFF7D2FB0F4B0E4901
:106EE00053F82020284600F003FE98F80810B8F860
:106EF000040091E7074A009209490A4A284600F02F
:106F0000F7FD7FE7E8BD0200D8BD0200A4BD020086
:106F1000E4BD0200CCBD0200D4BD020074BD02007D
:106F2000B4BD0200ACBD0200A0BD020098BD0200CD
:106F3000E0BD0200A8BD0200434B1978002900F013
:106F400081802DE9F04F002487B001258E4603E0B3
:106F50000134E4B2744560D23C4B27B21E6816F887
:106F600037C0ACF1200205FA02F9394ACCF120030E
:106F7000D2E9000125FA03F349EA030905FA0CF8FE
:106F800000EA080201EA0903134306EBC70BDFD04E
:106F900021EA09032E4920EA08026046C1E90023DC
:106FA00001F0FAFE16F837C0ACF1200205FA02F241
:106FB00001920199CCF12003C6B225FA03F3ACF19A
:106FC0002002194306FA02F30393224B0191D3E9FD
:106FD0000023CDE9042305FA0CF30093CCF1200142
:106FE000039B26FA01F10B43039306FA0CF3029379
:106FF000DDE90467DDE9002316401F4032463B46C9
:10700000DDE90267BB4208BFB24209D00E4B013432
:1070100093F800E0E4B274459ED307B0BDE8F08F6A
:107020009BF80110DBF80430A1F10101B1FA81F104
:107030004909091AB1FA81F14909002BE6D06046E5
:107040009847E3E7704700BF682A0020A02A002085
:10705000982A0020902A00202DE9F84F064624485F
:1070600000F0F2FBD8B9234F0123A6F1200103FA67
:1070700001FBC6F12002D7E9000123FA02F24BEA34
:10708000020B03FA06FA00EA0A0201EA0B031343B1
:1070900007D020EA0A0421EA0B05C7E90045BDE84C
:1070A000F88F304601F078FE134ED6E90089C8B15A
:1070B00048EA0A0349EA0B049846A146D7E90023A7
:1070C0004BEA03050D4B0A4819684AEA02044B468D
:1070D0004246C6E90023C7E900450022BDE8F84F53
:1070E00000F05CBB28EA0A0829EA0B09E6E700BFC2
:1070F000702A0020982A0020902A00206C2A002064
:10710000042A36D92DE9F04182B00E4605461446D0
:1071100001F0C6FC002836D01D491E4A1E4B0D60EA
:107120001E481F491C60167000230022741EC0E90F
:107130000023C1E90023E4B2EEB105EBC404194F0A
:10714000083D4FF00008032601E0AC4213D0A378BD
:1071500020788DF806803A4601A98DF804608DF8F4
:10716000053001F0A7FC083C0028EED002B0BDE8D5
:10717000F081072070470C4A0C48002100F0FCFA0F
:1071800002B0BDE8F08101F045FC0028C4D0EDE775
:10719000A02A0020682A00206C2A0020902A0020C3
:1071A000982A002059700200396F020054BE020074
:1071B00070B5084D2B785BB1074E00243368012170
:1071C00013F8340001F054FD2B780134A342F5D8B4
:1071D000002070BD682A0020A02A002070B5094D4B
:1071E0002B7853B1084E0024336813F8340001F0B3
:1071F000A1FD2B780134A342F6D80448BDE87040C5
:1072000000F022BB682A0020A02A0020702A00205B
:1072100000B585B000230390194601AA44F201008D
:10722000CDE9013300F004F805B05DF804FB00BFC0
:1072300010B572B6FFF71AFDFFF7DEFC0028FBD190
:10724000104C11492088000440F00100FFF72EFA8D
:107250000E4B1B68DB0700D500BE20880C490004DC
:1072600040F00200FFF722FABFF34F8F09490A4BA3
:10727000CA6802F4E0621343CB60BFF34F8F00BFD4
:10728000FDE700BFF024002058BE0200F0ED00E052
:1072900064BE020000ED00E00400FA05F8B5204AE3
:1072A000204B0024C2F84041C2F84441C2F8484192
:1072B000C2F84C41C2F80041C2F804411B6833B324
:1072C0001949D2F804550A68AD1A1A6825F07F45A5
:1072D000AA4227460DD8197CDE69AD1A144419B1AB
:1072E0001F74D3E9052090471EB133461A68AA429D
:1072F000F1D90E490E4A0B7812789A4208D00D49FE
:107300000D4A41F823404FF48013C2F80031F8BD14
:10731000531CDBB2022B08BF00230B70EFE700BF4A
:1073200000100140C42B0020C02B0020BD2B0020EA
:10733000BC2B0020B42B002000E100E02DE9F04F31
:107340008C4A8D4913780978DFF85082994285B0CC
:10735000D8F800A000F07B810133DBB2022B08BF1C
:10736000002386481370864A076852F823107B185A
:1073700023F07F4300240360534626462046A4465C
:10738000ABB11A688A4200F26581DC68C3F800C0BC
:10739000891A1044DA6934B13D1825F07F45C3E9F4
:1073A0000154DE611E4613460124002BE9D1002C56
:1073B00040F07C8101230093724B734FDFF8E09122
:1073C00043F00103019355464FF0000B46B3D6E955
:1073D00001C13446F669694B6C481A68ACEB02038C
:1073E00023F07F43834248D80B44236000220121CD
:1073F000C4E90122E2612174002D5DD02A689A421D
:107400004DD2284603E00A689A424FD20846C16925
:107410009B1A0029F7D12360E161C461002ED6D107
:1074200078783978884264D00B4603EB43034C1CD0
:10743000BA7807EBC303E1B28A421A79397004BF04
:1074400000213970022A9C6844D0032A38D0012ACE
:10745000E8D1227C002AE5D1D3F80CC0C4F804C0DE
:107460001969A1605869E06099F800009B69A361FF
:107470000028B0D062609446ADE7A2EB0C0222F087
:107480007F428A4202D28B1A2360AFE70023012297
:10749000C4E90033A360E36122746DB12A68C8F8BF
:1074A0000040D31A2B60E56125468FE7D21A0A60A7
:1074B0002360E161C461B1E7C8F80040254685E773
:1074C000002DAFD000232B74ED69002DFBD1C8F83F
:1074D0000050A5E74DB1AC422B4603D1E4E0944205
:1074E0002FD01346DA69002AF9D100232374884289
:1074F0009AD1BBF1000F01D1554553D0002D56D183
:10750000234E244A1F4C4FF480334FF4003101279F
:10751000C2F880103C43C6F848334FF43C60C6F8CC
:1075200008337760A047154BB7604FF43C601D608F
:10753000A047194B1D70002389F8003005B0BDE845
:10754000F08FA34200F09180E0692168D8610028A3
:1075500000F086802A4603680B440360AA424FF07D
:1075600000033978787823741CBF15464FF0010B5F
:10757000BDE700BFBC2B0020BD2B0020C02B00208E
:10758000B42B002080BE0200A42A0020FEFF7F0052
:107590000010014000E100E0B12B0020C42B0020CE
:1075A000B02B0020009B002BC5D0002DA8D0434B52
:1075B000434A1C68D2F80465424FD5F800A03978D8
:1075C000331B23F07F43DD1CB9B93F493F4B4FF4D8
:1075D0008030C2F844034FF00108C2F804034FF4AE
:1075E0000030C1F8800143F001030860C2F8008058
:1075F0004FF43C60984787F80080AA452CBF04EB05
:107600000A0363192E4923F07F43C1F84035D1F8AE
:107610000425921B9B1B22F07F4223F07F43033201
:107620009A4288D9294BD1F80425C1F8402543F066
:1076300001034FF43C609847234B4FF40032C3F8EA
:107640000021002389F8003005B0BDE8F08F002646
:107650000096B1E674BB521A1A6001230093ABE6A0
:10766000002339787878237441E71946EA69C8F825
:10767000002092B9CDE90231114BDFF840C0012062
:107680009860019B89F80000CCF800204FF43C6022
:107690009847DDE90231D8F80020C8690968D86147
:1076A00000287FF458AF59E72946DFE7C8F80030D3
:1076B0009A467FE6C8F800309A46CCE7C02B0020F7
:1076C00000100140B12B002000E100E080BE02006C
:1076D0002DE9F8431F4D204E204FDFF898804FF4DE
:1076E00080334FF400324FF001090024C6F88020A7
:1076F00047EA0907C5F848334FF43C60C5F808333A
:10770000C5F80490B847C5F808904FF43C60C8F835
:107710000040B847124A134B13491C601470134BB6
:10772000134A0C700B2114701C8099704FF4801256
:10773000C023C6F8802186F814333260C5F80845A6
:1077400086F81133D5F80435C8F800302046BDE876
:10775000F88300BF0010014000E100E080BE02009D
:10776000B12B0020C42B0020BC2B0020A42A002019
:10777000BD2B0020C02B0020074B9B784BB132B1B2
:1077800028B10368187C20B959745A6170470720E2
:1077900070470820704700BFA42A00202DE9F04759
:1077A000264CA37882B0002B3CD000283AD0042984
:1077B0003CD94369002B35D0814602A899F8113095
:1077C0000026012B00F8016D0CBF8846B046174615
:1077D0008A4600F073F86378A17822789DF8070054
:1077E0005D1CEDB2A94208BF3546AA4222D003EB88
:1077F000430304EBC3030121114AC3F80890197134
:10780000D2F804256570C3E9032AC3E9058700F0AF
:107810007BF80C4B4FF480123046C3F8002102B0C5
:10782000BDE8F087082002B0BDE8F087072002B06D
:10783000BDE8F08700F068F80420F0E7A42A0020F3
:107840000010014000E100E0F0B51A4CA37883B0CD
:1078500043B338B343692BB3064602A8002500F8AA
:10786000015D357400F02AF86278A77821789DF8D8
:107870000700531CDBB29F4208BF2B46994214D02D
:1078800002EB420204EBC2020221966011716370A6
:1078900000F03AF8084B4FF480122846C3F8002154
:1078A00003B0F0BD082003B0F0BD00F02DF80420B7
:1078B000F9E700BFA42A002000E100E070B4EFF374
:1078C000108472B60D4B9A68AAB90D490D4E012568
:1078D0009D60D1F8805035401D60C1F88060D1F8BE
:1078E00084505D604FF0FF33C1F88430027004B9FA
:1078F00062B670BC704701230370F8E7182E0020B1
:1079000000E100E0FC06FFBD094B9A687AB170B94E
:1079100010B4EFF3108172B6064A1C6814605C68FC
:107920005460986001B962B65DF8044B70477047C7
:10793000182E002000E100E001F01F024B09012198
:1079400000EB8300914000F01FB800BF01F01F0260
:1079500001234909934000EB8100D94300F020B88E
:107960004B0901F01F0150F82300C84000F001004E
:10797000704700BF50E8002F0B4640E8003C9CF0E9
:10798000000FF7D11046704750E8003F43EA01026C
:1079900040E8002C9CF0000FF6D11046704700BF65
:1079A00050E8003F03EA010240E8002C9CF0000F81
:1079B000F6D11046704700BF50E8003F03EB0102CC
:1079C00040E8002C9CF0000FF6D11046704700BF35
:1079D00050E8003FA3EB010240E8002C9CF0000FB0
:1079E000F6D11046704700BF012350E8002F42EA4D
:1079F000030C40E800C191F0000FF6D160467047DB
:107A0000002350E800CF0CEA030240E8002191F087
:107A1000000FF6D160467047B8B130B4D0E901121A
:107A2000521A0468D2B2531E2160DBB242B101681F
:107A30000A685C1E551C0D601370E3B2FF2BF6D173
:107A400003680020187130BC70470E20704700BFDB
:107A5000F0B583B002AB002503F8015D044618467B
:107A6000FFF72CFFD4E900311A688A4210D9511E61
:107A700019602168A3680F6812F8015C0A79A68A68
:107A8000E068DB1BDBB29A4206FB050538BF0B71D1
:107A90009DF80700FFF738FF284603B0F0BD00BF90
:107AA00030B583B002AB002203F8012D054618461D
:107AB0000C46FFF703FF2A681368591C1160E96838
:107AC000AA8A641AB4FBF2F41C709DF80700FFF751
:107AD0001BFF03B030BD00BF826842B110B5044641
:107AE00043690168006998470023A36010BD70478F
:107AF0000EB400B582B0039929B102AA04AB42F8D2
:107B0000043D00F08BF802B05DF804EB03B0704761
:107B10002DE9F84F88469045174605461E46DDE993
:107B20000AB175D343464FF00109B3FBF7F39F4207
:107B300009F10109F9D9B14538BFB14611F0010A7F
:107B4000AA6802D1BBF1000F43D1012402E0013E3B
:107B500007FB04F4012EFAD8B8FBF4F18F42F7D9F1
:107B60002D4E05E0B4FBF7F4A4B1B8FBF4F1AA681C
:107B7000705C531CAB602B689854D5E901329A4273
:107B800004FB1188EED32846FFF7A6FFB4FBF7F4F9
:107B9000002CEAD1BAF1000F15D0BBF1000F12D0C2
:107BA000CB4510D92024AB682A68591CA960D4544D
:107BB000D5E901329A420BF1FF3B06D2BBF1000F2F
:107BC00001D0CB45EFD1BDE8F88F2846FFF784FF01
:107BD000F4E78B0717D42024CB45B6D92B68511C6A
:107BE000A9609C54D5E901329A420BF1FF3B05D2C2
:107BF000BBF1000FA9D0CB45F0D1A6E72846FFF78F
:107C00006BFFAA68F4E7002E0CBF30242024E3E7C2
:107C10004FF001098FE700BF88BE0200002900F085
:107C2000F4812DE9F04F054685B092460C460B785D
:107C3000DFF8A0B501E0237893B1013483B1252B9F
:107C400015D0AA682968501CA8608B54D5E9013268
:107C50009A42F0D32846FFF73FFF2378002BECD160
:107C60002B7B002B40F0148105B0BDE8F08F21463E
:107C7000002711F8012B2D2A00F0E180302A00F0B6
:107C8000E2802B2A00F0D2802A2A00F0E080A2F1C4
:107C90003006F3B2092B03D9B8E1A3F1300601464F
:107CA000084606EB860310F8012BA2F13004092CDC
:107CB00002EB4303F1D92E2A00F0D58000230131D5
:107CC00001E011F8012B02F0FB0068280C46F8D007
:107CD000253A532AAFD801A151F822F09D7E020027
:107CE000377C0200377C0200377C0200377C0200C0
:107CF000377C0200377C0200377C0200377C0200B0
:107D0000377C0200377C0200377C0200377C02009F
:107D1000377C0200377C0200377C0200377C02008F
:107D2000377C0200377C0200377C0200377C02007F
:107D3000377C0200377C0200377C0200377C02006F
:107D4000377C0200377C0200377C0200377C02005F
:107D5000377C0200377C0200377C0200377C02004F
:107D6000377C0200377C0200377C0200377C02003F
:107D7000377C0200377C0200377C0200377C02002F
:107D8000377C0200377C0200377C0200377C02001F
:107D9000377C0200377C0200377C0200377C02000F
:107DA000377C0200377C0200B77E0200377C02007D
:107DB000377C0200377C0200377C0200377C0200EF
:107DC000377C0200377C0200377C0200377C0200DF
:107DD000377C0200D17E0200F37E0200377C020075
:107DE000377C0200377C0200377C0200F37E020001
:107DF000377C0200377C0200377C0200377C0200AF
:107E0000377C0200377C0200437F0200377C02008F
:107E1000377C0200B77F0200377C0200F17F02004E
:107E2000377C0200377C0200B77E020047F004076F
:107E30000C46214611F8012B2D2A7FF41FAF47F085
:107E400001070C46F5E747F002070C46F1E7DAF8C0
:107E500000301A1DCAF8002062781E682E2A04F12C
:107E600002007FF42BAF4A78A2F13003092B00F215
:107E70005081002303EB830302EB430310F8012F2F
:107E8000A2F130010929A3F13003F3D9014616E725
:107E9000284605B0BDE8F04FFFF71EBEAB682A6864
:107EA000591CA9604FF02501D154D5E901329A42FD
:107EB000FFF4C1AECEE6DAF80020111DCAF80010BA
:107EC00011682846CDE900671022FFF721FEB2E6CF
:107ED000DAF80020131DCAF80030AB682968127860
:107EE000581CA860CA54D5E901329A42FFF4A3AEE7
:107EF000B0E6DAF80020111DCAF80010D2F80080B0
:107F000088EAE872A2EBE872092A4FF0010107DD66
:107F1000AF48A0FB0202D208092A01F10101F7DCF7
:107F2000994238BF1946894607F00202002E71D1E6
:107F30002AB1002B00F04781FA0700F18D8000265E
:107F40008AE0DAF80020131DCAF80030AB6829680F
:107F50001768581C3022A860CA54D5E901239342FF
:107F600080F028812A68581C7821A860D154D5E96E
:107F70000123934280F019810F2F03D93A46120949
:107F80000F2AFCD84FF0805603E036093FF453AE79
:107F9000AB682968B7FBF6F2581CA8601BF8020012
:107FA000C854D5E90131994206FB1277EDD3284632
:107FB000FFF792FDE9E7DAF800301A1DCAF8002051
:107FC000D3F80080FB077ED54746A7EB080917F8D2
:107FD000013B002B5DD0AA682968501CA8608B5417
:107FE000D5E901329A42F0D32846FFF775FDECE758
:107FF000DAF80020111DCAF8001011682846CDE9F2
:1080000000670A22FFF784FD15E670470846002640
:10801000214650E6B8F1000F01DB780700D5013E9C
:1080200002B1CBB1F90717D4002E88D0B14513D2D5
:1080300020220393A9682B68481CA8605A54D5E9EC
:108040000131994206F1FF365DD2002E00F0BD806D
:10805000B145EFD1039B4E46B8F1000FC0F29280BC
:108060007A070AD5A9684A1CAA602A682B205054AE
:10807000D5E90121914280F0928007F00302022AA3
:108080005FD0CDE9006741460A222846FFF740FD50
:10809000D1E54E457FF6CFAD202705E04E453FF4B4
:1080A000CAAD002E3FF4C7ADAB682A68591CA96061
:1080B000D754D5E901329A4206F1FF36EED328466D
:1080C000FFF70AFDEAE7B8F1000F24D0404603F0BD
:1080D00002FE0746BE4220D9FEB14FF0200902E061
:1080E000BE421AD0CEB1AB682A68591CA96002F80A
:1080F0000390D5E901329A4206F1FF36F0D32846C3
:10810000FFF7EAFCECE728460292FFF7E5FC029A4B
:108110009BE70146D2E54746DCE708F1FF3818F84F
:10812000013F002B3FF487ADAA682968501CA86066
:108130008B54D5E901329A42F1D32846FFF7CCFCA3
:10814000EDE7002B9DD1002E3BD0B14599D2029393
:1081500023464C469946AA682B68501C4FF03001C4
:10816000A8609954D5E901329A4206F1FF3605D24A
:108170002EB3B442EFD1029B4C4682E72846FFF76C
:10818000ABFCF5E7A9684A1CAA602A682D20505468
:10819000D5E901219142C8F10008FFF46EAF2846ED
:1081A0000293FFF799FC029B67E72846FFF794FCD0
:1081B000AB68E1E62846FFF78FFCAB68D2E6029B8E
:1081C0004C4600265DE71E4646E7039BB7E600BF28
:1081D000CDCCCCCC88BE0200FFF71EBC2DE9F0410F
:1081E000858ACE1C043D2E440746B6FBF5F6FFF704
:1081F0002FFC78B3F6B24FF48073013E0446C5807D
:108200000760838027D08046002509E06379AE426D
:1082100003F101036371C8F80000076080461AD0BB
:108220003846FFF715FC01350028EFD16679721E3C
:1082300014D02346013082421B68FBD11F684EB127
:10824000002523682146013538461C46FFF728FCE7
:10825000AE42F6D100242046BDE8F0812768EFE762
:1082600004300121FFF7A8BBF8B501210446043012
:10827000FFF7AEFBC0B200B1F8BD6679721E12D036
:108280002346013082421B68FBD11F68002EF3D0C9
:10829000002523682146013538461C46FFF700FCBF
:1082A000AE42F6D1F8BD2768F2E700BF2DE9F843EA
:1082B0000446181DE688B0FBF6F30F46904606FB11
:1082C000130013B1013B2468FCD1351A454528BF82
:1082D0004546B8F1000F15D04FF000090430A8EB67
:1082E000050820442A4607EB090103F0E1FC464556
:1082F000A944246835464FF0000028BF4546B8F130
:10830000000FEBD1BDE8F8832DE9F843C6880433AC
:1083100004460F46B3FBF6F0904606FB103110B151
:1083200001382468FCD1751A454528BF4546B8F187
:10833000000F15D04FF0000904312144A8EB0508C7
:108340002A4607EB090003F0B3FC4645A94424681C
:1083500035464FF0000128BF4546B8F1000FEBD17C
:10836000BDE8F88341DF7047064A074B10B500248B
:1083700014701C60BFF35F8F0449054800F032F8A9
:10838000204610BDD02B0020D42B002098BE020028
:10839000C82B002000B583B002A8002300F8013DDF
:1083A000FFF78CFAF1EE103A23F09F03E1EE103A5A
:1083B000BFF35F8F0A4B4022C3F884219DF807006A
:1083C000FFF7A2FA03F0A4FA28B920BF40BF20BFEC
:1083D00003B05DF804FBFFF7C5FF03B05DF804FBD5
:1083E00000E100E001600B6843604A68934204BF0B
:1083F00000234360704700BF436843B1026891683F
:108400000B4443605268934204BF002343607047AB
:1084100030B4184DA5F59472AB1ADB1003EBD3738F
:108420005B1002EBC30152F83330984228BF0C4670
:1084300005D311E052F8333098420CD221468B1A02
:10844000DB1003EBD3735B108A4202EBC304F1D35E
:10845000094830BC70470D46984204D904F108021F
:10846000AA42D9D3F4E76068034B002808BF184636
:10847000EFE700BFECBF0200B0BE020030B4904B8B
:108480001B78062B20D08F4B1B68062B00F08580B5
:108490008D4AD2F8883043F47003C2F88830BFF3B5
:1084A0004F8FBFF36F8F4FF01023D3F80022002AB5
:1084B000C0F28681D3F80432002BC0F28181834B55
:1084C000834A1A6030BC7047824B1B681D07DAD1A3
:1084D000814B1B6803F0F002302A00F09E8003F00D
:1084E000E003402B00F099807B4B1B6803F0F00306
:1084F000302B00F0B980784B1B6803F0F002302A73
:1085000056D003F0E003402B52D0734B1B6803F0AE
:10851000F003302B00F0B6806F4B1B6803F0F002C5
:10852000302A66D003F0E003402B62D06A4B1B6810
:1085300003F0F003302B00F0B580674B1B6803F0AD
:10854000F003302B79D0644B1B6803F0F003502B01
:1085500000F0E480604B1B6803F0F002302A37D053
:1085600003F0E003402B33D05B4B1B6803F0F002B9
:10857000302A03D003F0E003402B84D14FF0804336
:10858000D3F80024D20744BF6FF00102C3F80024DF
:108590004C4B1B68062B7FF47BAF504B1B68062BA4
:1085A0007FF476AF4E4A136843F4806313606FE73D
:1085B0004C4B434A1B6812784B49C3F34233062A9B
:1085C0000B6048D1434B1B6819077FF45CAF9CE7F5
:1085D000464A3B4B12681B78454902F04F02062B76
:1085E0000A607FF450AF3B4B1B6819077FF44BAF19
:1085F000BAE74FF080430022C3F80C21C3F81021E2
:10860000C3F838252E4B1B78062B7FF43CAF314B3B
:108610001B681B077FF437AF88E7364B284A1B6877
:1086200012783549C3F30423062A0B60EAD1294B9B
:108630001B681C077FF427AF56E7304C204A3049AF
:1086400012783048304B0525256001250D60002447
:108650003F2104601960062A7FF415AF1D4B1B688B
:108660001C077FF410AF6EE7154B284A1B7828498A
:108670001160062B7FF407AF164B1B6818077FF4B9
:1086800002AF38E723490E4BCA681B7822F080728C
:10869000062BCA607FF4F7AE0E4B1B681A077FF4F7
:1086A000F2AE39E7064B1C4A1B780321062B1160FA
:1086B0007FF4E9AE074B1B681D077FF4E4AE3CE78F
:1086C000E00F00F03001001000ED00E0D8220020A3
:1086D0000090D003E40F00F0E80F00F03401001028
:1086E0003C170040440200103C05004058020010B6
:1086F000E40E0040240300104035014010560040B5
:1087000088560040185600401456004074C0074078
:108710000DF0ADBAF0ED00E0A00500404FF0805341
:10872000404AD3F80414C2F82015D3F80814C2F84C
:108730002415D3F80C14C2F82815D3F81014C2F875
:108740002C15D3F81414C2F83015D3F81814C2F845
:108750003415D3F81C14C2F84015D3F82014C2F80D
:108760004415D3F82414C2F84815D3F82814C2F8D5
:108770004C15D3F82C14C2F85015D3F83014C2F8A5
:108780005415D3F83414C2F86015D3F83814C2F86D
:108790006415D3F83C14C2F86815D3F84014224885
:1087A000C2F86C15D3F844140378C2F87015062B80
:1087B0007FF469AE1D4B1B6818077FF464AEC9E6F1
:1087C0001B4B0122C3F80425D3F80024002AFBD058
:1087D0004FF0102315221649C3F80022D1F80034B7
:1087E000002BFBD04FF010221521114BC2F80412C0
:1087F000D3F80024002AFBD000220D49C3F8042539
:10880000D1F80034002BFBD0BFF34F8F09490A4B3E
:10881000CA6802F4E0621343CB60BFF34F8F00BF1E
:10882000FDE700BF00C00040E00F00F0E40F00F0E3
:1088300000E0014000ED00E00400FA05044B195C83
:108840004FF0A04201238B40C2F80C35704700BFA7
:10885000D8C30200044B195C4FF0A04201238B40A7
:10886000C2F80835704700BFD8C30200C20730B451
:108870001AD54FF0A0430322C3F844274FF4003524
:10888000C3F848274FF48024C3F84C274FF4002145
:10889000C3F850274FF48012C3F80855C3F80845B1
:1088A000C3F80815C3F8082583070AD54FF0A0437D
:1088B0000C22C3F83427C3F83827C3F83C27C3F881
:1088C000402730BC704700BF30B585B00478094AF6
:1088D000094B45688DF80040047AC068039053F84E
:1088E000213001958DF8084052F8211068469847CC
:1088F00005B030BDD82B0020DC2B002030B585B072
:10890000047845688DF80040D0E90240064A074BDC
:10891000039053F8213001958DF8084052F821104A
:108920006846984705B030BDD82B0020DC2B0020CE
:10893000F0B51A4B06781A4D0C6991F81DE045F810
:1089400026400746174803F806E040F826200C4664
:1089500094460FCC89B06D460FC594E80F0085E8AA
:108960000F000496BEF1000F0BD0BCF1000F0E4AB1
:10897000694607F1040008BF002201F003F809B0BE
:10898000F0BDBCF1000F094A694607F10C0008BFB1
:10899000002200F0C5FD09B0F0BD00BF242E00206C
:1089A000D82B0020DC2B0020C9880200FD880200A3
:1089B00010B5154B1A6882B07AB10021134A1960BC
:1089C0001B68507900934FF080410123009CC1F84F
:1089D000083310B91168537188470D4B1A6882B17A
:1089E00000221A601B6801934FF080420221074B5E
:1089F0000198C2F808131B68012002B0BDE81040BE
:108A0000184702B010BD00BF00010040E02B00205D
:108A10000401004070B51E4C94F8585082B0A5BBBC
:108A20004FF0FF332946042204F15400C4E9003317
:108A3000C4E90233C4E90433C4E90633C4E90833A2
:108A4000C4E90A33C4E90C33C4E90E33C4E9103372
:108A5000C4E91233236503F036F90E4B0E4A0F4E6C
:108A60001560C02183F806134021C3F880111960F6
:108A70001368019301994FF000430122284684F8BE
:108A80005820C6F8043302B070BD082002B070BD93
:108A9000E82B002000E100E07C6100400060004025
:108AA000034B93F85800003018BF0120704700BFF7
:108AB000E82B0020F0B56C4B1C1894F93050002DB9
:108AC00068DA8E78C6F340069646002E5CD11D6AA1
:108AD000013500F0B58009240C2553F824700137C6
:108AE0005BD004F1010C53F82C70013700F0B38017
:108AF000A71CAF4246D253F82720013200F0AD80C8
:108B000004F1030CAC453DD253F82C70013700F052
:108B1000A28004F1040CAC4534D253F82C70013718
:108B200000F0998004F1050CAC452BD253F82C7061
:108B3000013700F0908004F1060CAC4522D253F8C6
:108B40002C70013700F0878004F1070CAC4519D276
:108B500053F82C7001377ED004F1080CAC4511D2CB
:108B600053F82C70013776D004F1090CAC4509D2CA
:108B700053F82C7001376ED00A34AC4202D2DC6A52
:108B8000013409D00420F0BD1D68013567D00124EF
:108B90000825A2E70820F0BD0B241F1865B243F892
:108BA00024E087F83050002E51D08A78540714D42E
:108BB000D6073BD44C784FF0A04600F5E072A400F5
:108BC00046F82240294EC40800F0070C375D012208
:108BD00002FA0CF23A4332558A780C7812F002020B
:108BE00009D1083D2B44104693F8502042EA8414E2
:108BF00083F85040F0BDAB0003F1804303F5C04360
:108C00000202D3F8101521F4473121F44071C3F862
:108C100010152404D3F8101504F4403402F4F8526B
:108C200022430A43C3F810250020F0BD820002F160
:108C3000A042D2F8004724F00204C2F80047C1E77E
:108C4000082684F83060C3F820E0354634461C44DA
:108C500084F84800A9E764469FE73C469DE7002565
:108C60001A6084F83050A0E7E82B00203C2C00204C
:108C700070B42E4D2E1883B096F93030072B1CDDC2
:108C80002B4493F848309B09032B41D0012B14BF90
:108C90004FF440314FF40031800000F1A040D0F893
:108CA000002722F44032C0F80027D0F800370B43E9
:108CB000C0F8003703B070BC7047DAB2072AF9D8A1
:108CC000980000F1804000F5C04003F14002D0F868
:108CD0001045920092B244F0010402F18042C0F8C3
:108CE000104502F5C04200200190019C106000294F
:108CF000E0D096F9302055F82220002ADAD001225F
:108D00000B4902FA03F3C1F8043303B070BC704797
:108D10004FF0A043D3F81035C34013F0010F0CBF40
:108D20004FF400314FF44031B6E700BFE82B00208C
:108D300000600040164B034493F93030072B18DCD9
:108D4000DAB2072A14D810B49A0002F1804202F570
:108D5000C042104CD2F81005012120F0010001FAA8
:108D600003F3C2F81005C4F808335DF8044B7047EC
:108D70007047800000F1A040D0F8003723F4403362
:108D8000C0F80037D0F80037C0F80037704700BF90
:108D9000E82B0020006000404FF0A043D3F81035CE
:108DA00023FA00F000F00100704700BF2DE9F04108
:108DB00086B00023A14A01931668012E00F0548169
:108DC0001E469F4B1A68012A00F05D819D4B1A6870
:108DD000012A00F06A819C4B1A68012A00F0778111
:108DE0009A4B1A68012A00F08481994B1A68012A6B
:108DF00000F09181974B1A68012A00F09E81964BF2
:108E00001A68012A0CD0954B1B68012B00F0A58134
:108E100016F0FF0F15D1002E30DB06B0BDE8F08153
:108E20008F4AD2F804231706EDD500221A601A687B
:108E300004926033049A1B68012B46F0800600F010
:108E40008C81884F00240125A30003F18043354223
:108E500003F5C0434FEA45050BD0D3F8100557F88A
:108E60002420D3F81015C0F30420C1F3014102B14E
:108E700090470134082CE7D1002ECEDA00224FF0C3
:108E8000FF33CDE90223774C012602AF94F950302D
:108E90005D1C2CD0DBB223F0C00006AA4FEAD00C38
:108EA00002EB0C0E03F007021EF80C1C06FA02F28D
:108EB00011421CD02518990995F9303054F8233007
:108EC000002B00F09881032900F098814FEA800C74
:108ED0000CF1A04C1EF8145CDCF800E71540CEF352
:108EE000014E40F05C81BEF1030F00F0DE810025F1
:108EF00094F95130581C2DD0DBB223F0C00006AAE3
:108F00004FEAD00802EB080E03F007011EF80C2C04
:108F100006FA01FC12EA0C0F1CD02218990992F9EA
:108F2000303054F82330002B00F05B81032900F02F
:108F30005B81820002F1A0421EF8148CD2F800E797
:108F400018EA0C0FCEF3014E40F03681BEF1030F4C
:108F500000F0A68194F95230591C2DD0DBB223F0D9
:108F6000C00006AA4FEAD00802EB080E03F0070182
:108F70001EF80C2C06FA01FC12EA0C0F1CD0221869
:108F8000990992F9303054F82330002B00F03C81DD
:108F9000032900F03C81820002F1A0421EF8148CEB
:108FA000D2F800E718EA0C0FCEF3014E40F0E38050
:108FB000BEF1030F00F06E8194F953305A1C2DD08E
:108FC000DBB223F0C00006AA4FEAD00802EB080E7D
:108FD00003F007011EF80C2C06FA01FC12EA0C0F34
:108FE0001CD02218990992F9303054F82330002B04
:108FF00000F0ED80032900F0ED80820002F1A04234
:109000001EF8148CD2F800E718EA0C0FCEF3014ECC
:1090100040F0BC80BEF1030F00F00081002D3FF452
:10902000FCAE4FF0A043019AD3F8103593423FF4C1
:10903000F4AE029A0193039228E700BF006100405A
:1090400004610040086100400C6100401061004074
:1090500014610040186100401C6100407C610040C8
:1090600000600040E82B00209A49D1F8041311F069
:10907000010170D0136013680493049B964B1A6827
:10908000012A7FF4A3AE934AD2F8042397077FF511
:109090009DAE00221A601B680493049B8F4B1A68D4
:1090A000012A46F002067FF496AE8A4AD2F80423DB
:1090B00055077FF590AE00221A601B680493049B4D
:1090C000874B1A68012A46F004067FF489AE814A6C
:1090D000D2F8042314077FF583AE00221A601B68C0
:1090E0000493049B7F4B1A68012A46F008067FF41C
:1090F0007CAE784AD2F80423D0067FF576AE002203
:109100001A601B680493049B774B1A68012A46F087
:1091100010067FF46FAE6F4AD2F8042391067FF5F4
:1091200069AE00221A601B680493049B6F4B1A6897
:10913000012A46F020067FF462AE664AD2F8042384
:1091400052067FF55CAE00221A601B680493049BF4
:1091500046F0400653E60E4633E6654B00221A60A1
:109160001B6805934FF0A043059AD3F8103501937F
:1091700046F000464CE6BEF1020F7FF41DAF032916
:1091800063D0002B3FF418AF984715E7BEF1020FEC
:109190007FF444AF032969D0002B54D13EE7BEF1E0
:1091A000020F7FF4A4AE032900F091800025002B6C
:1091B0003FF49EAE98479BE6BEF1020F7FF4CAAE25
:1091C000032956D0002B3FF4C5AE9847C2E60329C9
:1091D0007FF424AF17F8082042EA0C0207F80820B1
:1091E0000BE703297FF4B6AE17F8082042EA0C0219
:1091F00007F808209DE603297FF479AE17F80C5094
:10920000154307F80C5061E603297FF4D5AE17F833
:10921000082042EA0C0207F80820BCE60329BBD16B
:109220004FF4003ED2F800C72CF4403CC2F800C70F
:10923000D2F800C701354CEA0E0CEDB2C2F800C7F7
:10924000002B3FF4EEAE9847E8E64FF4403ED2F8EC
:1092500000C72CF4403CC2F800C7D2F800C7013563
:109260004CEA0E0CEDB2C2F800C78AE74FF4403E5C
:10927000D8E74FF4403ED2F800C72CF4403CC2F887
:1092800000C7D2F800C701354CEA0E0CEDB2C2F8A7
:1092900000C797E703297FF474AF4FF4003ED6E789
:1092A00003298FD14FF4003EE5E703297FF47FAF18
:1092B0004FF40035DCF8002722F44032CCF80027C8
:1092C000DCF800272A43CCF8002701256FE74FF48C
:1092D0004035EFE700600040046100400861004055
:1092E0000C610040106100401461004018610040B2
:1092F0007C610040014B1B68184700BF442C0020D4
:10930000104B984201D00020704730B583B002A8BE
:10931000002300F8013D0D46FEF7D0FA0A4B1C79F8
:1093200034B19DF80700FEF7EFFA112003B030BD0D
:1093300001229DF807001D601A71FEF7E5FA20462C
:10934000F4E700BF00200040442C0020034B98426B
:1093500003D1034B00221A601A71704700200040AD
:10936000442C002030B56C4AD2F8043399058BB0F8
:1093700066D5D2F82431002B62D00023C2F8243104
:10938000D2F8243103934FF40171644B0398C2F86F
:10939000081393F8291009B9012151605E4902228E
:1093A0008DF81820D1F88024C1F880249869D968F4
:1093B00009920022CDE90710C3E90622D3E900147F
:1093C00006A8A047544AD2F81C31BBB1534B186AC7
:1093D0005969884269D350480022C0F81C21D0F84E
:1093E0001C010190019849B198688DF818200891E6
:1093F0005A610790D3E9001206A89047464AD2F86E
:109400004431DBB10021454BC2F84411D2F844018C
:1094100093F829100090009809B1012111609A6910
:1094200062B10022586AD9689A610122CDE9071019
:109430008DF8182006A8D3E9001290470BB030BD74
:10944000354AD2F804335B07BCD5D2F80831002B7B
:10945000B8D0324B996900293CD00021C2F80811DC
:10946000D2F8081104910499D868596AD2F81825DD
:1094700042545A6A996901325A625A6A8A42A1D19F
:10948000DA691968002A2ED0D8685D6A1C699A6169
:10949000079000220120DC60DA615A628DF8180022
:1094A00008955B6806A898478CE793F8280000F0B9
:1094B000FF0400288FD1C2F81C41D2F81C11029180
:1094C00002999C68186A196A205C01311962C2F815
:1094D0001C0593E7C2F80811D2F808010590059819
:1094E000D2F81825C9E793F8292012B90A4A0120B1
:1094F0005060094A4FF40170C2F80803586ADA68EC
:1095000008900024012007928DF818005A689C6189
:1095100006A8904756E700BF002000404C2C0020D2
:109520002DE9F041DFF8988107792C2606FB0786A4
:1095300082B096F82A30002B40F08F800D4604460A
:109540005C4900681646FFF7DBFE002840F081808A
:109550002B68591C0CD001224FF0A04102FA03F3F2
:10956000C1F808352B6803F5E073032241F8232086
:109570006B685A1C06D003F5E0734FF0A04200213F
:1095800042F823102368AA69C3F82425297D6B7D3E
:1095900022680B43C2F86C35D5E900122368C3F882
:1095A0001425C3F80C152B7D012B5AD02C2303FB5B
:1095B00007F308EB030256602A6948F80320002EDF
:1095C00034D022682B7F3C4D0021C2F81C11D2F808
:1095D0001C2100922268009EC2F84411D2F8441166
:1095E000226801910199C2F804532168090B4AB21B
:1095F0005B01002ADBB256DB02F1604202F56142F8
:1096000082F800332268120B42F3C40323F0604354
:1096100023F0030303F1604303F5614302F01F02EB
:10962000012101FA02F2C3F880211A602C23246878
:1096300003FB0783002204250121C4F8005583F8A9
:109640002A10C3E9062283F829205A6102B0BDE836
:10965000F081112002B0BDE8F081082002B0BDE821
:10966000F081AB68591C06D003F5E0734FF0A042BF
:10967000002142F82310EB685A1C0DD001224FF054
:10968000A04102FA03F3C1F80835EB6803F5E07373
:10969000032241F82320EB682268A968C2F8083544
:1096A000C2F8101582E7054A01F00F010A4413764B
:1096B000A8E700BF6593020080000200FCEC00E018
:1096C0004C2C0020F8B52F4D047902682C2303FBA5
:1096D000045300215B68C2F8001583B103682A4A6D
:1096E000C3F808230368294E1B0B5AB252092032D3
:1096F00003F01F03012101FA03F346F82230036847
:109700004FF0FF32D3F80CC5D3F81475D3F8081511
:10971000D3F81065C3F81425C3F80C2503689445E5
:10972000C3F80825C3F8102506D00CF5E07C4FF0EF
:10973000A043022243F82C207B1C06D007F5E077DB
:109740004FF0A043022243F82720721C06D006F5F2
:10975000E0764FF0A043022243F826204B1C06D0AF
:1097600001F5E0714FF0A043022243F82120006888
:10977000FFF7ECFD2C2303FB0454002384F82A306C
:109780006360F8BD4C2C00208402020000E100E080
:10979000F0B5314E05792C2303FB056385B05C6978
:1097A000002C53D11C62996083F828405A610268EA
:1097B000C2F81C41D2F81C11026802910121029FDB
:1097C00091600268D3F808C0C2F81C41D2F81C119D
:1097D00001910199D3F820E0196A5F681CF80EE046
:1097E00001311962C2F81CE517B1204605B0F0BD81
:1097F0001A6A5C690168944203D819E093F828203A
:109800003ABBD1F81C21002AF8D0C1F81C71D1F85C
:109810001C210392039AD3F820E01A6A1CF80EE088
:1098200001321A62C1F81CE51A6AA242E9D3016842
:10983000D1F81C31002BFBD00123CB6000202C235E
:1098400003FB056500236B6105B0F0BD112005B079
:10985000F0BD0F20F3E700BF4C2C0020F0B5474BC4
:10986000D3F8242189B0002A54D00021C3F8241150
:10987000D3F82421029202228DF81020029AD3F804
:1098800080043F4AC3F880040790D3F83C05D368AE
:109890008DF81800C2E9061105931168536804A8F1
:1098A0009847364BD3F84421BAB10020344AC3F864
:1098B0004401D3F8444191690194019C69B1D3F802
:1098C0003C458DF81840D3689061012405931168D8
:1098D00053688DF8104004A89847284BD3F82021EE
:1098E000B2B10021264AC3F82011D3F820415069B3
:1098F0000094009C60B1D3F84C0593688DF8180073
:109900008DF810105161059304A8D2E9001398470F
:1099100009B0F0BDD3F810110029C2D0C3F810214E
:10992000D3F810111648039103998169D3F83C4587
:109930008C42B6D1C569C768D0E90016E4B295B1CA
:10994000D3F800C285612CF02005C261C3F8005233
:109950000369C36001228DF8184005978DF8102027
:1099600004A8B0479DE7012385618DF8184005974D
:109970008DF8103004A8B04793E700BF00200040E6
:10998000782C00202DE9F04307796B4E4FEAC70889
:1099900008EB070306EB830385B093F82030002B18
:1099A00040F09E800D460446644900689146FFF7EA
:1099B000A7FC002840F090802B68591C0CD0012295
:1099C0004FF0A04102FA03F3C1F808352B6803F504
:1099D000E073032241F823206B685A1C06D003F57C
:1099E000E0734FF0A042002142F823102368AA69D7
:1099F000C3F82425297D6A7D23680A43C3F86C25B2
:109A0000D5E900312268C2F80C35C2F814152B7D57
:109A1000012B69D008EB07029200B318C3F8049039
:109A20002B69B350B9F1000F45D021682B7F444D0D
:109A30000022C1F81021D1F8101100912168DDF841
:109A400000C0C1F82021D1F8201101912168DDF872
:109A500004C0C1F82421D1F8241102912168DDF855
:109A600008C0C1F84421D1F8441122680391039938
:109A7000C2F804532168090B4AB25B01002ADBB229
:109A800054DB02F1604202F5614282F80033226841
:109A9000120B42F3C40323F0604323F0030303F1EA
:109AA000604303F5614302F01F02012101FA02F253
:109AB000C3F880211A604744226806EB870600231A
:109AC0000124082186F82040C2F80015C6E90633B3
:109AD000736105B0BDE8F083112005B0BDE8F083E7
:109AE000082005B0BDE8F083AB68591C06D003F52B
:109AF000E0734FF0A042002142F82310EB685A1C9B
:109B00000DD001224FF0A04102FA03F3C1F808354D
:109B1000EB6803F5E073032241F82320EB68226829
:109B2000A968C2F80835C2F8101573E7054A01F0B4
:109B30000F010A441376AAE7782C00205D980200F2
:109B400010030200FCEC00E0F8B506792F4C026827
:109B5000F500AB1904EB830300215B68C2F8001524
:109B600083B103682A4AC3F808230368294F1B0BF3
:109B70005AB25209203203F01F03012101FA03F304
:109B800047F8223003684FF0FF32D3F80CE5D3F8E2
:109B900014C5D3F80815D3F81075C3F80C25C3F80D
:109BA000142503689645C3F80825C3F8102506D088
:109BB0000EF5E07E4FF0A043022243F82E20BCF1C8
:109BC000FF3F06D00CF5E07C4FF0A043022243F8A3
:109BD0002C207A1C06D007F5E0774FF0A043022234
:109BE00043F827204B1C06D001F5E0714FF0A0434D
:109BF000022243F82120354404EB85040068FFF776
:109C0000A5FB002384F820306360F8BD782C002089
:109C10001003020000E100E001F06043B3F1005FD7
:109C20002CD1F0B50679234F4FEAC60C0CEB060495
:109C300007EB840483B0636913BBA16062610568AC
:109C4000C5F82031D5F820E10568CDF804E0DDF84D
:109C500004E0C5F85831D5F858E10568CDF800E0C2
:109C6000DDF800E0C5F84415C5F848250268012173
:109C7000916062683AB1184603B0F0BD1020704799
:109C8000112003B0F0BD036800E08AB9D3F82011B9
:109C9000D3F858210029F8D0002A14BF0F20002043
:109CA0000CEB060307EB830300225A6103B0F0BDFF
:109CB0000F20F5E7782C0020F0B407793B4D7E00AB
:109CC000F419A40005EB040C82B09CF80830002BBA
:109CD00067D12A514A68CCF80420427972B19C4677
:109CE0009A0002F5A072046844F802C00133A45837
:109CF00042790194DBB29A42019CF1D80468CB7896
:109D0000240B62B25B01002ADBB244DB02F1604249
:109D100002F5614282F800330268120B42F3C40379
:109D200023F0604323F0030303F1604303F5614331
:109D3000012402F01F0204FA02F2C3F880211A6023
:109D4000D0F800C04B78DCF8042503F0030322F0C0
:109D500003021343CCF80435D0F800C08B78DCF84C
:109D6000082503F0030322F003021343CCF808355F
:109D700000680B78D0F810253E4422F00F0203F063
:109D80000F0305EB86051343C0F8103500202C7235
:109D900002B0F0BC7047064A04F00F042244137668
:109DA000BAE7082002B0F0BC704700BF9C2C00202E
:109DB000FCEC00E0036801221A607047036801228E
:109DC0005A607047F0B4076840F20115D7F80042B6
:109DD0008D4024EA0504C7F80042056882B0D5F832
:109DE00000429DF8186023434FF48034C5F80032D8
:109DF0008C4056B90368C3F80843036801F5A8719D
:109E000043F8212002B0F0BC704701F150039B00E1
:109E100005680026EE50ED5803680195019DC3F8D2
:109E20000443EAE72DE9F041114C124EDFF8488077
:109E300082B000254FF48037236804F5E04007FA2C
:109E400005F20021013580B253B1D6F804331A422D
:109E500006D0216023680193D8E90031019A984720
:109E6000042D04F10404E7D102B0BDE8F08100BF85
:109E700040910040009000409C2C002072DF704711
:109E800073DF704776DF70477ADF70477CDF70479B
:109E90007FDF70478FDF7047B1DF7047FDF7B8B9DC
:109EA00008B5037803B108BD054B3B211888FFF7BF
:109EB000E9FF0028F7D0BDE80840FDF7A9B900BFC9
:109EC000FE2200200D281ED110B5104B188800046A
:109ED0000C4640F003000E49FCF7E8FB0D4B0E4921
:109EE0001888224601F062FC30F008020DD043F2DF
:109EF0000202904209D043F20142904205D0BDE8EF
:109F00001040FDF785B9FDF783B910BDF02400209E
:109F10002CC40200FE220020182D00207AB910B5B2
:109F200008481446FFF74AFF4FF0A0434FF4803231
:109F3000C3F80C252046BDE81040FEF78BBC014855
:109F4000FFF738BF58C40200B0F5A07F23D170B529
:109F50002A4D2B4B28681B78C0F1070043FA00F00C
:109F600010F0010018D0274A1068C0F10700034123
:109F700013F0010034D1244E244C32782368B3EB23
:109F8000520F4FF0A0434FF4803224D2C3F808257B
:109F9000FEF754FC0AE070474FF0A0434FF48032C4
:109FA000C3F80C25FEF756FC174E184C2368327880
:109FB00001339342236000D070BD2B6811485A1CB6
:109FC00000210233082A2A600360216014D0012A8C
:109FD00008BF016070BDC3F80C25FEF73BFCE5E748
:109FE0004FF0A0434FF48032C3F808250020FEF75D
:109FF00025FC054E054CD9E7296070BDA82C002032
:10A00000E82200203C2D0020DC220020402D0020F2
:10A01000FDF7FEB870B54FF0A04426484FF48035E8
:10A020001646FFF7CBFEC4F80C550020FEF712FCD5
:10A03000731EDBB2FD2B36D9C4F80C5500201E4C24
:10A04000FEF708FC642544F001044FF47A40A04771
:10A05000013DFAD14FF0A0434FF480322846C3F8B7
:10A060000825FEF7EBFB64254FF47A40A047013D3D
:10A07000FAD14FF0A0434FF480322846C3F80C25A4
:10A08000FEF7E8FB64254FF47A40A047013DFAD182
:10A090004FF0A0434FF48032C3F808252846BDE8AE
:10A0A0007040FEF7CBBB054B02481E70BDE8704008
:10A0B000FFF780BE58C4020050C40200E82200200E
:10A0C00070B50388103B82B00646462B00F29E8096
:10A0D000DFE813F0BA0047009C0007019C009C00D9
:10A0E0009C009C009C009C009C009C009C009C0090
:10A0F0009C009C009C00A6009C009C009C009C0076
:10A100009C009C009C009C009C009C009C009C006F
:10A110009C009C009C009C009C009C009C009C005F
:10A120009C009C009C009C009C009E009C009C004D
:10A130009C009C009C009C009C009C009C009C003F
:10A140009C009C009C009C009C009C009C009C002F
:10A150009C009C009C009C00B0009C009C009C000B
:10A160009E00664B66491888664C000440F0030068
:10A17000FCF79CFA4FF0A0434FF48032C3F8082557
:10A180000020FEF75BFB642544F001044FF47A40A5
:10A19000A047013DFAD14FF0A0434FF4803228464A
:10A1A000C3F80C25FEF756FB64254FF47A40A04710
:10A1B000013DFAD14FF0A0434FF480322846C3F856
:10A1C0000825FEF73BFB64254FF47A40A047013D8C
:10A1D000FAD14FF0A0434FF48032C3F80C25284643
:10A1E000FEF738FB4848FFF7E9FD484B4FF6FF7292
:10A1F0001A80FCF7F3FF08B1FDF70AF8444B012180
:10A200001878FFF73DFE08B1FDF702F802B070BD07
:10A2100080881321FFF736FE0028F5D102B070BD0B
:10A2200002A9002321F8043D8088FFF733FE0028AF
:10A23000ECD0E9E7354A0023108819461A46FFF7A3
:10A240002BFE0028E2D0DFE72C4B324918882D4C3A
:10A25000000440F00300FCF729FA4FF0A0434FF44C
:10A260008032C3F808250020FEF7E8FA642544F0A0
:10A2700001044FF47A40A047013DFAD14FF0A043CA
:10A280004FF480322846C3F80C25FEF7E3FA642524
:10A290004FF47A40A047013DFAD14FF0A0434FF46C
:10A2A00080322846C3F80825FEF7C8FA64254FF423
:10A2B0007A40A047013DFAD14FF0A0434FF48032DD
:10A2C0002846C3F80C25FEF7C5FA104BB188124892
:10A2D000198001F0EFF870B9FCF76AFF002895D0FB
:10A2E00092E70A4A0023108885211A46FFF7D0FD1D
:10A2F00000288BD088E7FCF78BFFEDE7F0240020E7
:10A300001CC4020050C4020058C40200FE220020F7
:10A31000FC22002010C40200302D002080B5002156
:10A32000A8B00846FCF756F908B1FCF771FFFCF736
:10A33000DBF80120FEF79AFA4FF0A04303224FF416
:10A340000061C3F840270220C3F82C27C3F8081582
:10A35000FEF774FA0020FEF771FAFDF7B9F908B1BB
:10A36000FCF756FF40F2666201219248FCF7C8FEF6
:10A3700008B1FCF74DFFFDF7F7FF08B1FCF748FF08
:10A3800001F036FA08B1FCF743FF28AC002344F88B
:10A390003C3D0120214601F009FB08B1FCF738FFE4
:10A3A000204601F0B7FB08B1FCF732FF28AD1123BE
:10A3B00005F8783D804801F08EFC7F4982B228463E
:10A3C000FFF764FD08B1FCF723FF082200212046B7
:10A3D00001F079FC794B199320464FF0C8731A931A
:10A3E000FFF752FD08B1FCF713FF0021744800F09D
:10A3F0005FFF08B1FCF70CFF0023724A7248049318
:10A40000294619930A9201F043F808B1FCF700FFBE
:10A4100028AE6E4B46F8903D6D48314601F0F2F89B
:10A4200008B1FCF7F5FE6B4B6B481993214600F021
:10A4300011F908B1FCF7ECFE654B684F9B7C8DF879
:10A440000E303C2241F2235300212846ADF80C3057
:10A4500001F039FC022106234FF001083C228DF85F
:10A460002810204600218DF82B308DF82A8001F02D
:10A470002AFC3A4603AB284652F8041BADF8748018
:10A480001E9300F08DF908B1FCF7C2FEB968544A7A
:10A49000204600F085F908B1FCF7BAFE1822002129
:10A4A000304601F010FC01200023324640254FF4D5
:10A4B00080768DF8100049494A48ADF81C30059364
:10A4C000ADF824600695FFF7D9FC08B1FCF7A0FEB3
:10A4D0001C220021204601F0F6FB00234FF420202F
:10A4E000414A1993ADF872308DF874303F4B1A9091
:10A4F0004FF42035032120461B958DF87010CDE9CF
:10A500001E2300F07BFC08B1FCF782FE384B394A71
:10A5100093E8030084E8030021463748FFF7CCFBAB
:10A5200008B1FCF775FE354B3348D3F81025344D90
:10A5300001234FF47A51D2B221FA02F200930021A2
:10A54000FFF740FC4FF0A0434FF48032C3F80C25D6
:10A550000020FEF77FF9642445F001054FF47A40AE
:10A56000A847013CFAD14FF0A0434FF48032204677
:10A57000C3F80825FEF762F964244FF47A40A8472F
:10A58000013CFAD14FF0A0434FF480322046C3F88B
:10A590000C25FEF75FF9134B01211878FFF770FCCB
:10A5A00008B1FCF735FEFCF727FB0028FBD1FDF7CF
:10A5B000F1FEF8E7E022002060C402005000A00095
:10A5C000042D00209D9E0200302D00201D9F0200C2
:10A5D000182D002015A00200AC2C0020EC22002039
:10A5E000F8220020FC220020A19E020011A00200FF
:10A5F00008C40200499F020058C4020000900040B5
:10A6000050C40200A8DF704762DF70470388502BF8
:10A6100000D0704710B5C4884B889C4200D010BD54
:10A62000038A012BFBD14B69002BF8D00446827CB6
:10A6300080889847054BA27C18880549000440F0A3
:10A640000300BDE81040FCF7D5B900BFF02400209E
:10A6500080C4020070B5204B0E6805460FCB8EB04B
:10A6600002AC84E80F006E61204605F11201FFF78D
:10A67000CBFF08B10EB070BD0EA94FF4C05321F846
:10A68000343D2A46AB7C8DF806300120FFF7BAFF37
:10A690000028EFD10146202206A801F014FB9DF806
:10A6A0002530AA7C8DF81A2043F00A038DF8253056
:10A6B0002888012306A941F60106AA1C4FF00114BF
:10A6C000ADF8186007948DF829308DF82A3000F025
:10A6D0006BFC0EB070BD00BF70C402006DDF704730
:10A6E00079DF70477DDF704764DF70472DE9F04FF9
:10A6F00083B004880C9EBDF83490B6F800A0002CFE
:10A7000039D09846002317468B4605461C4603E081
:10A710002A880134A24224DD6A6852F8240001909C
:10A7200000220DF1030101A8FFF7DEFF20BB9DF819
:10A730000320BA42ECD13288B91803B389452BDB28
:10A7400042440DF1030101A80123FFF7CDFF98B9A1
:10A7500031889DF803200A4432802A880134A242BD
:10A76000DADC43B13388013BA3EB0A039BB2FF2B36
:10A7700012D808F80A30002003B0BDE8F08F02318B
:10A780000132894592B207DB328008F802B0328884
:10A79000013292B23280D3E70C2003B0BDE8F08FD3
:10A7A0002DE9F04700231788138090F82D3086B0EC
:10A7B000144605460E46002B40F0F880AA78002A81
:10A7C00040F0FA80EA78A2B1D91CB94200F2F080D8
:10A7D0000221F154238801339BB201212380F154DB
:10A7E00023880B449BB22380F25423880B449BB2F2
:10A7F00023806A68AAB1D91CB94200F2D98002212B
:10A8000092F90020F154238801339BB20A2123805E
:10A81000F154238801339BB22380F25423880133FF
:10A8200023802B89002B40F018812B8A002B40F0CD
:10A830002C812B8B002B40F040812B6A002B47D0C2
:10A84000B4F800E00EF10602BA4200F2B1801A88B4
:10A85000052A40F2FE806FF4486802EB080189B2D5
:10A860004FF27D30814240F2F4805988052940F250
:10A87000F0806FF4486C8C441FFA8CFC844540F2E5
:10A88000E8804FF6FF70824204D0814202D08A42B3
:10A8900000F2DF80052206F80E202288013292B2F3
:10A8A00012212280B1542288013292B2228019886A
:10A8B000B1543244090A51702288023292B2228085
:10A8C0005B88B35432441B0A5370238802332380BD
:10A8D0006B6A002B2FD09988B4F800C0881C0CF14B
:10A8E00002020244BA4263D8FE2861D8033106F856
:10A8F0000C102288013292B2FF212280B1542288AA
:10A90000013292B222801988B1543244090A51703E
:10A910002088023080B220809A8862B199680393BF
:10A92000002900F09680304401F0C2F9039B9A8818
:10A9300023881344238095F82C30002B40F084802A
:10A940002878002835D02B88012B00F082802288BF
:10A9500002F1020CBC452BD8012804D16B780233DC
:10A9600013449F4224D3BB1E9B1A06A99BB221F815
:10A97000083D06EB0C00FFF7B5FED0B92A78022A95
:10A9800000F0FB80012A00F000810821FE2B0FD887
:10A990002288581CB0542288013292B22280B154CD
:10A9A0002288013213442380002002E0082F23D89C
:10A9B0000C2006B0BDE8F0870433BB42F8D804A8E9
:10A9C000FFF78EFE0028F4D12388BDF81020032164
:10A9D000F154238801339BB219212380F154238839
:10A9E00001339BB2F1182380F254120A4A70238873
:10A9F00002339BB22380E5E604A8FFF76FFE002830
:10AA0000D7D113880822CA54238801339BB21B2252
:10AA10002380CA542088013080B220800622084456
:10AA20000DF1110101F044F923889DF8102006333F
:10AA30009BB212F0FE0218BF01222380F254238839
:10AA400001339BB22380B9E6D5F82880B8F1000F16
:10AA50004CD1072006B0BDE8F08705F108080222B6
:10AA6000CDE90047404611463346FFF73FFE002838
:10AA70009FD1CDE900474046334610220621FFF71B
:10AA800035FE00283FF4D1AE93E705F11008CDE97B
:10AA900000474046334602220321FFF727FE0028E5
:10AAA00087D1CDE900474046334610220721FFF702
:10AAB0001DFE00283FF4BDAE7BE705F11808CDE987
:10AAC00000474046334602221421FFF70FFE0028BC
:10AAD0007FF46FAFCDE90047404633461022152181
:10AAE000FFF704FE00283FF4A8AE62E7B8F80420A0
:10AAF0000232FE2A3FF65CAF23884FF000094FF088
:10AB0000160A0132F254238801339BB2238006F8DF
:10AB100003A0238801339BB22380B8F80020F254AD
:10AB20003344120A5A70238802339BB22380B8F848
:10AB30000410F0180A4661B1D8F808301946002B05
:10AB400087D001F0B5F8B8F80420238813449BB2ED
:10AB5000238009F1010995F82C205FFA89F94A450B
:10AB600009EB49087FF6ECAEAA6A02EB8808B8F850
:10AB700004200232FE2AC4D91AE7BDF810209342FD
:10AB8000FFF403AF1346092100E76A789342FFF40C
:10AB9000FCAE13460821F9E675DF704776DF704793
:10ABA0007ADF70477BDF704730B51D4B1A8884B25F
:10ABB000A24283B001D003B030BD1A4D187A297B70
:10ABC00088420FD32A7C00211972E2B96B69002BED
:10ABD000F1D00022ADF806408DF8042001A8984776
:10ABE00003B030BD104603F10A01FFF7D5FF28B1CD
:10ABF0001128E0D0AB69002BF1D1DCE71A7A0132E1
:10AC00001A7203B030BD3B212046FFF7C7FF30F07A
:10AC10000803DBD0AB69002BD8D09847D6E700BF3C
:10AC2000602D0020442D0020F0B50288112A83B049
:10AC3000034649D036D9122A08D0502A04D16C4D87
:10AC4000C188EA89914251D003B0F0BD694C828835
:10AC500021889142F8D1E1896589B1F5FA7F24BF55
:10AC60006FF4F9700E18588938BF002685424FD806
:10AC7000A58985424CD39B89B34249D301F2F31194
:10AC8000994245D35A4B5B694FF480712181002B67
:10AC9000DAD00121ADF806208DF8041001A89847FC
:10ACA00003B0F0BD102ACFD1C27B012ACCD1514CC8
:10ACB00021884FF6FF7291423CD04D4B9B69002B8F
:10ACC000C2D004209847BFE74A4C828823889A4222
:10ACD000BAD16068FCF7B8FD18B1454B9B6903B168
:10ACE00098474FF6FF73238003B0F0BD028A022A13
:10ACF000AAD1404C86882788B742A5D1123000F0EF
:10AD00004FF9002856D16068FCF79EFD70B99BE7AB
:10AD1000374D267A6068D5E90131002E08BF194603
:10AD200000236372FCF73AFD00288DD0AB69002B3D
:10AD3000B5D189E7304D8288228003CDC4F80E104A
:10AD4000E689C4F80A00B6F5FA7F28BF6FF4F975F2
:10AD50004FF00001588AB4F80AC0217228BF711957
:10AD6000234D8445EF8919D8B4F80CC0844515D318
:10AD70009B8A8B4212D306F2F3169E420ED3012118
:10AD80006172002F7FF460AF6B69002B3FF45CAF02
:10AD90008DF80410ADF8062001A880E70023637247
:10ADA000002F7FF451AF60686968FCF7F7FC00285A
:10ADB000BCD149E7637A63B9D5E90131267A606885
:10ADC0003A46002E08BF1946FCF7E8FC0028ADD132
:10ADD0003AE76B6900222272002B3FF435AF012263
:10ADE000ADF806608DF8042001A898472CE700BF55
:10ADF000442D0020602D0020742D002000282FD02D
:10AE0000F8B5054606460FCD164F3C460FC484469E
:10AE100095E80700144B3B6084E80700BCF1000F85
:10AE200018D06046FFF7BCFE98B9326810685168C8
:10AE300003C30E4B0E490F4A18464FF6FF7440F8F5
:10AE4000041F1C800021FCF797FC002814BF03207E
:10AE50000020F8BD1846FFF7A5FE0028E9D0F8BD90
:10AE60000E207047442D0020742D0020602D0020FE
:10AE70007C2D0020A9AB02002DE9F0470388B0F833
:10AE80000490112B98B059D01A2B804647D0102B24
:10AE900002D018B0BDE8F087394A936818A8DB43A0
:10AEA00040F8603D5168FCF77BFD009B0193019BDE
:10AEB00063B300273C46214601A8FCF751FD28B1A9
:10AEC00018AB03EB4703013723F8284C0134142C4B
:10AED000F1D10D970DAE0FCE02AC0FC40FCE0FC443
:10AEE00096E8070084E8070087B10DF10A0A254EAD
:10AEF0000AEB47073AF8025F234C20462946043400
:10AF0000FCF724FDA642F8D1BA45F3D1B9F1130FED
:10AF10001BD90420FCF77CF918B0BDE8F087047A4F
:10AF20001A482409012C494620D9FCF705FD022CBA
:10AF3000494617481ED0FCF7FFFCAAE749461548CA
:10AF4000FCF704FD18B0BDE8F08749461148FCF74E
:10AF5000F3FC49460C48FCF7EFFC98F80F30012B46
:10AF600097D049460C48FCF7E7FC92E7FCF7EEFC6B
:10AF700007484946FCF7EAFC18B0BDE8F08700BF77
:10AF80009C2D0020142E0020A02D0020AC2D002090
:10AF9000B02D0020A42D0020A82D0020AADF70478E
:10AFA000007800F001007047F0B58B7891B0002B6D
:10AFB0000C460988ADF80C1008BF0123054616465B
:10AFC0006846032200218DF80E3000F07CFE637C81
:10AFD0000022013B8DF80020042B09D8DFE813F094
:10AFE0000500D300D700DB00CF0011238DF800301F
:10AFF000A37C0022013B8DF80120042B09D8DFE857
:10B0000013F00500D200D600BA00CE0011238DF84F
:10B0100001309DF80230E77B227D207C217B67F3A5
:10B02000C303002A60F3041314BF0222012261F358
:10B03000000362F3420309A81C2200218DF80230AC
:10B0400000F041FE637B13F0300F73D1627BA37B72
:10B050008DF824200021142204A88DF8253000F05A
:10B0600032FEA368A288CDF814D003A90491ADF8EC
:10B070001C201BB1E2880893ADF81820A369002BAF
:10B0800036D001AF03220021384600F01CFEA26931
:10B090001388ADF82C305388ADF82E3051680D97D9
:10B0A000137B0A91013B00218DF80410042B2DD84D
:10B0B000DFE803F0299D8D91990011238DF805306B
:10B0C000917A9DF8063061F3C3038DF80630D17A8A
:10B0D00061F304138DF80630117A927B002A61F334
:10B0E000000314BF0222012262F342038DF80630EE
:10B0F000E36903B10C93334604AA09A92846FFF774
:10B100004DFF11B0F0BD11238DF80430537B0021A9
:10B11000013B8DF80510042BD2D801A151F823F082
:10B12000BBB00200BFB10200C7B10200B7B102005C
:10B13000DFB10200032202A8002100F0C4FDE37C7D
:10B140000022013B8DF80920042B07D8DFE803F02B
:10B15000035F5B57530011238DF809309DF80A30C7
:10B1600002AA0E92012262F3420311228DF80A30E4
:10B170008DF808206AE712238DF8013049E7222371
:10B180008DF8003034E721238DF8003030E731238B
:10B190008DF800302CE712238DF8003028E72223A9
:10B1A0008DF8013035E721238DF8013031E7312367
:10B1B0008DF801302DE712238DF8053080E721232B
:10B1C0008DF805307CE731238DF8053078E73123A1
:10B1D0008DF804309AE712238DF8043096E7222385
:10B1E0008DF805306CE722238DF804308EE721239B
:10B1F0008DF804308AE722238DF80930AEE7122358
:10B200008DF80930AAE731238DF80930A6E721230C
:10B210008DF80930A2E700BF90DF7047A5DF7047C7
:10B22000B5DF7047F0B5002485B003466A46204676
:10B2300002A9ADF80830ADF80A3003940094ADF8D7
:10B240000440FFF7E9FF064610B9304605B0F0BDEF
:10B25000134F3D88FDF7DCF82D0445F0010503464A
:10B26000224628460F49FBF745FCBDF80020BDF8F3
:10B27000023002B933B138880B49000440F00100B4
:10B28000FBF738FCBDF80420002ADED038880749D7
:10B29000000440F00100FBF7ADFB304605B0F0BD07
:10B2A000F824002084C40200D0C4020010C50200AB
:10B2B00008B90E20704730B403464FF01712002033
:10B2C0001B2541F61B3419611A60C3F806201D7155
:10B2D0009872D8729C8130BC704700BF838823BBB2
:10B2E00030B50288232A83B00C461FD03FD93A2AB2
:10B2F00024D0552A4DD0242A6BD0A37A9BB1E18863
:10B300000020FFF78BFF00283FD011280BD05B4BAC
:10B310001C88FDF77DF8240444F0010402465849D6
:10B320002046FBF767FB03B030BD70470B7B007A0C
:10B33000984228BF1846FFF775FFDEE74389C988A2
:10B3400022698B4228BF0B46172B38BF1723238156
:10B350004AB1E17A39B140F677210091ADF8043075
:10B360006946204690470023E372A372DBE7102A68
:10B3700040D0112AC1D14FF0171141F61B32A372F0
:10B38000E372C4F80610A281CDE70122A072E27236
:10B39000C9E7C288C988A372172A38BF17228A4210
:10B3A00028BF0A4618462281FFF73AFF00283BD102
:10B3B000E37A002BA1D12369002B9ED040F67721A0
:10B3C00022890091ADF80420694620469847A37A67
:10B3D00094E70A69017A6173002A8ED04DF67A20CB
:10B3E000ADF8043000908DF804102046694690476F
:10B3F000A37A83E70B790B73C27B012A11D0022A4F
:10B400000CD0C98822898A421BD3627B9A42BFF43E
:10B4100074AF1846FFF706FFA37A6FE74988E1800B
:10B42000F0E70988E180EDE7144B1D88FCF7F0FF99
:10B430002D0445F00105024612492846FBF7DAFAC9
:10B44000B6E70020FFF7EAFE18B90123E372237B79
:10B45000DBE7112803D10123A372237BD5E7074B38
:10B460001D88FCF7D5FF2D0445F00105024604496F
:10B470002846FBF7BFFA237BC7E700BFF82400206C
:10B4800068C502009CC50200B0DF704766DF7047E8
:10B4900060B159B10378DE2B0AD00B684360DE221D
:10B4A0004FF6FF7302704380002070470E207047F4
:10B4B0000820704738B10378DE2B02D1418000208C
:10B4C0007047082070470E20704700BF19B110B1B7
:10B4D0000B78DE2B00D0704730B505464B8880884E
:10B4E000984285B00C4606D02A88012A0DD0512AF0
:10B4F00020D005B030BD0B7A002B35D12B88112B15
:10B5000048D0512B4DD0012BF3D12B7A012BF0D108
:10B5100062888242EDD123720021FFF7B7FF002835
:10B520004ED0112808BF2372E3D063689847E0E744
:10B530006388A8888342DCD1AA79022AD9D1A97B61
:10B5400001F0FD0004282ED00529D2D10020694643
:10B55000C1E90200009048608DF800201846FFF70E
:10B5600093FF0028E1D1C4E70021FFF78FFF0346D6
:10B57000A8B1112812D0636898472B88112B05D0E9
:10B58000512BD5D0012BB4D1A888BEE7AA886388F7
:10B590009A42AED14FF6FF736380AAE7012323726C
:10B5A000EBE70346C6E7694600204FF4C0754860E4
:10B5B0000090C1E902008DF80020ADF80450CDE7FD
:10B5C000207296E7A8DF7047AADF7047AEDF7047AA
:10B5D00062DF70470388502B12D110B44B88C488A7
:10B5E0009C4202D05DF8044B7047038A012BF9D1CD
:10B5F0004B69002BF6D0827C5DF8044B808818479D
:10B60000704700BFF0B5684B0E6805460FCB95B08C
:10B6100004AC84E80F006E61204605F11201FFF7CB
:10B62000D7FF044610B1204615B0F0BD14A941F271
:10B63000235321F8483D2A46AB7C8DF80A3001207F
:10B64000FFF7C0FF04460028EDD1214603226846DB
:10B6500000F039FB9DF80230012666F342032146D3
:10B6600041F211171C220DA88DF80230ADF80070C0
:10B6700000F029FB9DF8343095F812C00E9443F089
:10B680001203214641F22457032201A8CDE91044B8
:10B6900013948DF834308DF80EC0ADF80C70CDF8E1
:10B6A00048D000F010FB9DF806309DF804C09DF8CE
:10B6B000057066F3420364F3C30364F3041364F395
:10B6C000030766F3030C64F3000366F3071C64F3DB
:10B6D00007172146142208A88DF806308DF804C0FB
:10B6E0008DF8057000F0EFFA01AF0C9408AA03ACD6
:10B6F0000DA905F10A0328880894CDE90976ADF86B
:10B700002C60FFF761FF044600288CD101461C2203
:10B710000DA800F0D8FA9DF83430A87C8DF80E0002
:10B7200043F00A03214641F22557032201A80E9453
:10B73000CDE91044CDE912448DF83430ADF80C70E9
:10B7400000F0C1FA9DF806309DF804009DF80570E0
:10B7500066F3420364F3C30366F3030064F3041364
:10B7600066F3071066F3030764F30003214614220F
:10B770008DF8040066F3071708A88DF806308DF8D9
:10B78000057000F0A0FAAB1C28880C9403AD089556
:10B7900008AA0DA901ADCDE90956ADF82C60FFF757
:10B7A00013FF04463FE700BFDCC5020070B588B058
:10B7B0000E4605468DF80720012404A8102200211A
:10B7C000ADF80E4000F07FFA7389ADF810300DF13E
:10B7D00007020DF10E0304A928468DF81240CDE9A9
:10B7E0000632FFF7F3FE08B070BD00BF10DF7047F0
:10B7F00070B53E4D2B7884B0002B68D13C4E3D494E
:10B80000012302A83370FCF7EDFD039B002B54D1FC
:10B81000394902A8FCF7E6FD039B4BB1D3E90021AF
:10B820000020904702A8FCF7E7FD039B002BF5D111
:10B83000324A002312688DF8083002A80192FCF702
:10B840003DF82F4901A8FFF7D1FFB0FA80F3044675
:10B850005B099DF808002B70FCF756F8002C33D1DB
:10B86000284A29493470E0230C7082F8163382F894
:10B87000153392F816335B09012B2CD9042B2AD0EF
:10B88000224B996861BB4FF4800313601A4902A8E8
:10B89000FCF7A8FD039BBBB1D3E900210120904731
:10B8A00002A8FCF7A9FD039B002BF5D10CE002A830
:10B8B000FCF7A2FD039B002BAAD0D3E900210020B6
:10B8C00090470028F3D10446204604B070BD0824F8
:10B8D000204604B070BD42F20200FBF799FCD5E7A8
:10B8E0001A6842F480021A60D0E700BF152E0020CB
:10B8F000142E0020F0C5020008C60200ECC50200AC
:10B900003172020000E100E0162E0020182E002007
:10B91000014B1878704700BF152E002000B583B08A
:10B9200068460849FCF75EFD019B43B1D3E900205E
:10B9300090476846FCF760FD019B002BF6D103B0F1
:10B940005DF804FBFCC5020060DF704769DF7047EB
:10B9500061DF7047134B1B781BB330B5124D91B0AC
:10B9600034240DF1020103A8ADF80240FFF7F0FF07
:10B9700088B9294601A8FCF735FD029B002BF0D0C1
:10B98000D3E9002103A8904701A8FCF735FD029BED
:10B99000002BF5D1E5E7052801D0FBF739FC11B004
:10B9A00030BD7047172E002054C80200002900F057
:10B9B000A08070B5504B0B6084B00C4605460C223D
:10B9C000002101A800F07FF90126062301A92268C1
:10B9D0008DF8045020208DF80660ADF80830FFF790
:10B9E000B5FF002879D10C22002101A800F06BF9E5
:10B9F000012100238DF8051022688DF8063001A979
:10BA000040208DF80730FFF7A1FF002858D10C2205
:10BA1000002101A800F057F90A2322688DF80430AC
:10BA200001A90120FFF792FF00283CD10C22002140
:10BA300001A800F048F94FF4B0632268019301A90E
:10BA4000A120FFF783FF08BB0C22002101A800F012
:10BA50003AF99DF8043022686FF3000301A9A02091
:10BA60008DF80430FFF772FF08B904B070BD234BA6
:10BA70001C88FCF7CDFC240444F001040246204954
:10BA80002046FAF7B7FF002004B070BD1B4B1D889D
:10BA9000FCF7BEFC2D0445F0010502461949284675
:10BAA000FAF7A8FFD0E7154B1D88FCF7B1FC2D0471
:10BAB00045F00105024614492846FAF79BFFB5E711
:10BAC0000E4B1D88FCF7A4FC2D0445F00105024631
:10BAD0000E492846FAF78EFF99E7084B1D88FCF7B8
